{
  "contractName": "CarWallet",
  "abi": [
    {
      "inputs": [
        {
          "internalType": "address[]",
          "name": "_primaryOwners",
          "type": "address[]"
        },
        {
          "internalType": "address[]",
          "name": "_secondaryOwners",
          "type": "address[]"
        }
      ],
      "stateMutability": "nonpayable",
      "type": "constructor"
    },
    {
      "anonymous": false,
      "inputs": [
        {
          "indexed": true,
          "internalType": "address",
          "name": "owner",
          "type": "address"
        },
        {
          "indexed": true,
          "internalType": "uint256",
          "name": "txIndex",
          "type": "uint256"
        }
      ],
      "name": "ConfirmPaymentRequest",
      "type": "event"
    },
    {
      "anonymous": false,
      "inputs": [
        {
          "indexed": true,
          "internalType": "address",
          "name": "owner",
          "type": "address"
        },
        {
          "indexed": true,
          "internalType": "uint256",
          "name": "txIndex",
          "type": "uint256"
        }
      ],
      "name": "ExecutePaymentRequest",
      "type": "event"
    },
    {
      "anonymous": false,
      "inputs": [
        {
          "indexed": true,
          "internalType": "address",
          "name": "owner",
          "type": "address"
        },
        {
          "indexed": true,
          "internalType": "uint256",
          "name": "txIndex",
          "type": "uint256"
        }
      ],
      "name": "RevokeConfirmation",
      "type": "event"
    },
    {
      "anonymous": false,
      "inputs": [
        {
          "indexed": true,
          "internalType": "address",
          "name": "from",
          "type": "address"
        },
        {
          "indexed": true,
          "internalType": "address",
          "name": "to",
          "type": "address"
        },
        {
          "indexed": true,
          "internalType": "uint256",
          "name": "txIndex",
          "type": "uint256"
        },
        {
          "indexed": false,
          "internalType": "uint256",
          "name": "amount",
          "type": "uint256"
        },
        {
          "indexed": false,
          "internalType": "bytes",
          "name": "data",
          "type": "bytes"
        }
      ],
      "name": "SubmitPaymentRequest",
      "type": "event"
    },
    {
      "inputs": [],
      "name": "currentCarUser",
      "outputs": [
        {
          "internalType": "address",
          "name": "",
          "type": "address"
        }
      ],
      "stateMutability": "view",
      "type": "function",
      "constant": true
    },
    {
      "inputs": [
        {
          "internalType": "uint256",
          "name": "",
          "type": "uint256"
        },
        {
          "internalType": "address",
          "name": "",
          "type": "address"
        }
      ],
      "name": "isConfirmed",
      "outputs": [
        {
          "internalType": "bool",
          "name": "",
          "type": "bool"
        }
      ],
      "stateMutability": "view",
      "type": "function",
      "constant": true
    },
    {
      "inputs": [
        {
          "internalType": "address",
          "name": "",
          "type": "address"
        }
      ],
      "name": "isPrimaryOwner",
      "outputs": [
        {
          "internalType": "bool",
          "name": "",
          "type": "bool"
        }
      ],
      "stateMutability": "view",
      "type": "function",
      "constant": true
    },
    {
      "inputs": [
        {
          "internalType": "address",
          "name": "",
          "type": "address"
        }
      ],
      "name": "isSecondaryOwner",
      "outputs": [
        {
          "internalType": "bool",
          "name": "",
          "type": "bool"
        }
      ],
      "stateMutability": "view",
      "type": "function",
      "constant": true
    },
    {
      "inputs": [
        {
          "internalType": "uint256",
          "name": "",
          "type": "uint256"
        }
      ],
      "name": "primaryOwners",
      "outputs": [
        {
          "internalType": "address",
          "name": "",
          "type": "address"
        }
      ],
      "stateMutability": "view",
      "type": "function",
      "constant": true
    },
    {
      "inputs": [
        {
          "internalType": "uint256",
          "name": "",
          "type": "uint256"
        }
      ],
      "name": "requests",
      "outputs": [
        {
          "internalType": "address",
          "name": "to",
          "type": "address"
        },
        {
          "internalType": "address",
          "name": "fromAddress",
          "type": "address"
        },
        {
          "internalType": "address",
          "name": "carUser",
          "type": "address"
        },
        {
          "internalType": "string",
          "name": "fromName",
          "type": "string"
        },
        {
          "internalType": "uint256",
          "name": "reqId",
          "type": "uint256"
        },
        {
          "internalType": "uint256",
          "name": "amount",
          "type": "uint256"
        },
        {
          "internalType": "bytes",
          "name": "data",
          "type": "bytes"
        },
        {
          "internalType": "bool",
          "name": "executed",
          "type": "bool"
        }
      ],
      "stateMutability": "view",
      "type": "function",
      "constant": true
    },
    {
      "inputs": [
        {
          "internalType": "uint256",
          "name": "",
          "type": "uint256"
        }
      ],
      "name": "secondaryOwners",
      "outputs": [
        {
          "internalType": "address",
          "name": "",
          "type": "address"
        }
      ],
      "stateMutability": "view",
      "type": "function",
      "constant": true
    },
    {
      "inputs": [
        {
          "internalType": "uint256",
          "name": "",
          "type": "uint256"
        }
      ],
      "name": "simpleRequests",
      "outputs": [
        {
          "internalType": "address",
          "name": "carUser",
          "type": "address"
        },
        {
          "internalType": "string",
          "name": "fromName",
          "type": "string"
        },
        {
          "internalType": "uint256",
          "name": "amount",
          "type": "uint256"
        },
        {
          "internalType": "bool",
          "name": "executed",
          "type": "bool"
        }
      ],
      "stateMutability": "view",
      "type": "function",
      "constant": true
    },
    {
      "inputs": [
        {
          "internalType": "address",
          "name": "",
          "type": "address"
        }
      ],
      "name": "subscriptions",
      "outputs": [
        {
          "internalType": "bool",
          "name": "",
          "type": "bool"
        }
      ],
      "stateMutability": "view",
      "type": "function",
      "constant": true
    },
    {
      "inputs": [
        {
          "internalType": "address",
          "name": "_serviceAddress",
          "type": "address"
        },
        {
          "internalType": "uint256",
          "name": "_maxAmount",
          "type": "uint256"
        }
      ],
      "name": "subscribe",
      "outputs": [],
      "stateMutability": "nonpayable",
      "type": "function"
    },
    {
      "inputs": [],
      "name": "setCurrentCarUser",
      "outputs": [],
      "stateMutability": "nonpayable",
      "type": "function"
    },
    {
      "inputs": [],
      "name": "resetCurrentCarUser",
      "outputs": [],
      "stateMutability": "nonpayable",
      "type": "function"
    },
    {
      "inputs": [
        {
          "internalType": "address",
          "name": "_to",
          "type": "address"
        },
        {
          "internalType": "string",
          "name": "_from",
          "type": "string"
        },
        {
          "internalType": "uint256",
          "name": "_reqId",
          "type": "uint256"
        },
        {
          "internalType": "uint256",
          "name": "_amount",
          "type": "uint256"
        },
        {
          "internalType": "bytes",
          "name": "_data",
          "type": "bytes"
        }
      ],
      "name": "submitPaymentRequest",
      "outputs": [],
      "stateMutability": "nonpayable",
      "type": "function"
    },
    {
      "inputs": [
        {
          "internalType": "uint256",
          "name": "_txIndex",
          "type": "uint256"
        }
      ],
      "name": "confirmPaymentRequest",
      "outputs": [],
      "stateMutability": "nonpayable",
      "type": "function"
    },
    {
      "inputs": [
        {
          "internalType": "uint256",
          "name": "_txIndex",
          "type": "uint256"
        }
      ],
      "name": "revokePaymentConfirmation",
      "outputs": [],
      "stateMutability": "nonpayable",
      "type": "function"
    },
    {
      "inputs": [],
      "name": "getPrimaryOwners",
      "outputs": [
        {
          "internalType": "address[]",
          "name": "",
          "type": "address[]"
        }
      ],
      "stateMutability": "view",
      "type": "function",
      "constant": true
    },
    {
      "inputs": [],
      "name": "getSecondaryOwners",
      "outputs": [
        {
          "internalType": "address[]",
          "name": "",
          "type": "address[]"
        }
      ],
      "stateMutability": "view",
      "type": "function",
      "constant": true
    },
    {
      "inputs": [],
      "name": "getTransactionCount",
      "outputs": [
        {
          "internalType": "uint256",
          "name": "",
          "type": "uint256"
        }
      ],
      "stateMutability": "view",
      "type": "function",
      "constant": true
    },
    {
      "inputs": [
        {
          "internalType": "uint256",
          "name": "_txIndex",
          "type": "uint256"
        }
      ],
      "name": "getPaymentRequest",
      "outputs": [
        {
          "internalType": "address",
          "name": "to",
          "type": "address"
        },
        {
          "internalType": "address",
          "name": "carUser",
          "type": "address"
        },
        {
          "internalType": "string",
          "name": "fromName",
          "type": "string"
        },
        {
          "internalType": "uint256",
          "name": "value",
          "type": "uint256"
        },
        {
          "internalType": "bool",
          "name": "executed",
          "type": "bool"
        }
      ],
      "stateMutability": "view",
      "type": "function",
      "constant": true
    },
    {
      "inputs": [],
      "name": "getPaymentRequests",
      "outputs": [
        {
          "components": [
            {
              "internalType": "address",
              "name": "carUser",
              "type": "address"
            },
            {
              "internalType": "string",
              "name": "fromName",
              "type": "string"
            },
            {
              "internalType": "uint256",
              "name": "amount",
              "type": "uint256"
            },
            {
              "internalType": "bool",
              "name": "executed",
              "type": "bool"
            }
          ],
          "internalType": "struct CarWallet.SimplifiedRequest[]",
          "name": "",
          "type": "tuple[]"
        }
      ],
      "stateMutability": "view",
      "type": "function",
      "constant": true
    }
  ],
  "bytecode": "0x60806040523480156200001157600080fd5b5060405162003e3f38038062003e3f8339818101604052810190620000379190620006c5565b60008251116200007e576040517f08c379a00000000000000000000000000000000000000000000000000000000081526004016200007590620007d1565b60405180910390fd5b6000815111620000c5576040517f08c379a0000000000000000000000000000000000000000000000000000000008152600401620000bc9062000869565b60405180910390fd5b60005b8251811015620002c9576000838281518110620000ea57620000e96200088b565b5b60200260200101519050600073ffffffffffffffffffffffffffffffffffffffff168173ffffffffffffffffffffffffffffffffffffffff16141562000167576040517f08c379a00000000000000000000000000000000000000000000000000000000081526004016200015e9062000930565b60405180910390fd5b600560008273ffffffffffffffffffffffffffffffffffffffff1673ffffffffffffffffffffffffffffffffffffffff16815260200190815260200160002060009054906101000a900460ff1615620001f7576040517f08c379a0000000000000000000000000000000000000000000000000000000008152600401620001ee90620009c8565b60405180910390fd5b6001600560008373ffffffffffffffffffffffffffffffffffffffff1673ffffffffffffffffffffffffffffffffffffffff16815260200190815260200160002060006101000a81548160ff0219169083151502179055506000819080600181540180825580915050600190039060005260206000200160009091909190916101000a81548173ffffffffffffffffffffffffffffffffffffffff021916908373ffffffffffffffffffffffffffffffffffffffff160217905550508080620002c09062000a23565b915050620000c8565b5060005b8151811015620004ce576000828281518110620002ef57620002ee6200088b565b5b60200260200101519050600073ffffffffffffffffffffffffffffffffffffffff168173ffffffffffffffffffffffffffffffffffffffff1614156200036c576040517f08c379a0000000000000000000000000000000000000000000000000000000008152600401620003639062000930565b60405180910390fd5b600660008273ffffffffffffffffffffffffffffffffffffffff1673ffffffffffffffffffffffffffffffffffffffff16815260200190815260200160002060009054906101000a900460ff1615620003fc576040517f08c379a0000000000000000000000000000000000000000000000000000000008152600401620003f390620009c8565b60405180910390fd5b6001600660008373ffffffffffffffffffffffffffffffffffffffff1673ffffffffffffffffffffffffffffffffffffffff16815260200190815260200160002060006101000a81548160ff0219169083151502179055506001819080600181540180825580915050600190039060005260206000200160009091909190916101000a81548173ffffffffffffffffffffffffffffffffffffffff021916908373ffffffffffffffffffffffffffffffffffffffff160217905550508080620004c59062000a23565b915050620002cd565b50505062000a71565b6000604051905090565b600080fd5b600080fd5b600080fd5b6000601f19601f8301169050919050565b7f4e487b7100000000000000000000000000000000000000000000000000000000600052604160045260246000fd5b6200053b82620004f0565b810181811067ffffffffffffffff821117156200055d576200055c62000501565b5b80604052505050565b600062000572620004d7565b905062000580828262000530565b919050565b600067ffffffffffffffff821115620005a357620005a262000501565b5b602082029050602081019050919050565b600080fd5b600073ffffffffffffffffffffffffffffffffffffffff82169050919050565b6000620005e682620005b9565b9050919050565b620005f881620005d9565b81146200060457600080fd5b50565b6000815190506200061881620005ed565b92915050565b6000620006356200062f8462000585565b62000566565b905080838252602082019050602084028301858111156200065b576200065a620005b4565b5b835b8181101562000688578062000673888262000607565b8452602084019350506020810190506200065d565b5050509392505050565b600082601f830112620006aa57620006a9620004eb565b5b8151620006bc8482602086016200061e565b91505092915050565b60008060408385031215620006df57620006de620004e1565b5b600083015167ffffffffffffffff8111156200070057620006ff620004e6565b5b6200070e8582860162000692565b925050602083015167ffffffffffffffff811115620007325762000731620004e6565b5b620007408582860162000692565b9150509250929050565b600082825260208201905092915050565b7f4361724d756c746953696757616c6c65743a205072696d617279206f776e657260008201527f7320726571756972656400000000000000000000000000000000000000000000602082015250565b6000620007b9602a836200074a565b9150620007c6826200075b565b604082019050919050565b60006020820190508181036000830152620007ec81620007aa565b9050919050565b7f4361724d756c746953696757616c6c65743a205365636f6e64617279206f776e60008201527f6572732072657175697265640000000000000000000000000000000000000000602082015250565b600062000851602c836200074a565b91506200085e82620007f3565b604082019050919050565b60006020820190508181036000830152620008848162000842565b9050919050565b7f4e487b7100000000000000000000000000000000000000000000000000000000600052603260045260246000fd5b7f4361724d756c746953696757616c6c65743a20496e76616c6964206f776e657260008201527f2e00000000000000000000000000000000000000000000000000000000000000602082015250565b6000620009186021836200074a565b91506200092582620008ba565b604082019050919050565b600060208201905081810360008301526200094b8162000909565b9050919050565b7f4361724d756c746953696757616c6c65743a204f776e6572206e6f7420756e6960008201527f7175652e00000000000000000000000000000000000000000000000000000000602082015250565b6000620009b06024836200074a565b9150620009bd8262000952565b604082019050919050565b60006020820190508181036000830152620009e381620009a1565b9050919050565b7f4e487b7100000000000000000000000000000000000000000000000000000000600052601160045260246000fd5b6000819050919050565b600062000a308262000a19565b91507fffffffffffffffffffffffffffffffffffffffffffffffffffffffffffffffff82141562000a665762000a65620009ea565b5b600182019050919050565b6133be8062000a816000396000f3fe608060405234801561001057600080fd5b5060043610610149576000357c0100000000000000000000000000000000000000000000000000000000900480634dec4059116100ca578063b2c39a1c1161008e578063b2c39a1c14610394578063b6ad89841461039e578063bb24ea13146103ba578063bbc2dbe3146103d8578063f046395a146103f657610149565b80634dec4059146102ad57806380f59a65146102dd57806381d12c581461030d5780638de6928414610344578063b09fbe1a1461036057610149565b80632ff11be1116101115780632ff11be11461021d5780633f31a7541461024d5780633fa0485f14610269578063408683d51461028557806340dc3a411461028f57610149565b80630e0538b51461014e5780630ff9ab421461017e57806316185792146101b157806322907544146101cf5780632e7700f0146101ff575b600080fd5b61016860048036038101906101639190612246565b610426565b604051610175919061228e565b60405180910390f35b610198600480360381019061019391906122df565b610446565b6040516101a894939291906123c3565b60405180910390f35b6101b961053b565b6040516101c691906125ab565b60405180910390f35b6101e960048036038101906101e491906122df565b6106a7565b6040516101f691906125cd565b60405180910390f35b6102076106e6565b60405161021491906125e8565b60405180910390f35b610237600480360381019061023291906122df565b6106f3565b60405161024491906125cd565b60405180910390f35b610267600480360381019061026291906122df565b610732565b005b610283600480360381019061027e91906127d9565b610a1d565b005b61028d610e4b565b005b610297610fd9565b6040516102a4919061293b565b60405180910390f35b6102c760048036038101906102c29190612246565b611067565b6040516102d4919061228e565b60405180910390f35b6102f760048036038101906102f2919061295d565b611087565b604051610304919061228e565b60405180910390f35b610327600480360381019061032291906122df565b6110b6565b60405161033b9897969594939291906129f2565b60405180910390f35b61035e60048036038101906103599190612a7e565b61128b565b005b61037a600480360381019061037591906122df565b6114b6565b60405161038b959493929190612abe565b60405180910390f35b61039c6115e9565b005b6103b860048036038101906103b391906122df565b611807565b005b6103c2611b0d565b6040516103cf91906125cd565b60405180910390f35b6103e0611b33565b6040516103ed919061293b565b60405180910390f35b610410600480360381019061040b9190612246565b611bc1565b60405161041d919061228e565b60405180910390f35b60066020528060005260406000206000915054906101000a900460ff1681565b6003818154811061045657600080fd5b90600052602060002090600402016000915090508060000160009054906101000a900473ffffffffffffffffffffffffffffffffffffffff169080600101805461049f90612b47565b80601f01602080910402602001604051908101604052809291908181526020018280546104cb90612b47565b80156105185780601f106104ed57610100808354040283529160200191610518565b820191906000526020600020905b8154815290600101906020018083116104fb57829003601f168201915b5050505050908060020154908060030160009054906101000a900460ff16905084565b60606003805480602002602001604051908101604052809291908181526020016000905b8282101561069e57838290600052602060002090600402016040518060800160405290816000820160009054906101000a900473ffffffffffffffffffffffffffffffffffffffff1673ffffffffffffffffffffffffffffffffffffffff1673ffffffffffffffffffffffffffffffffffffffff1681526020016001820180546105e890612b47565b80601f016020809104026020016040519081016040528092919081815260200182805461061490612b47565b80156106615780601f1061063657610100808354040283529160200191610661565b820191906000526020600020905b81548152906001019060200180831161064457829003601f168201915b50505050508152602001600282015481526020016003820160009054906101000a900460ff1615151515815250508152602001906001019061055f565b50505050905090565b600081815481106106b757600080fd5b906000526020600020016000915054906101000a900473ffffffffffffffffffffffffffffffffffffffff1681565b6000600280549050905090565b6001818154811061070357600080fd5b906000526020600020016000915054906101000a900473ffffffffffffffffffffffffffffffffffffffff1681565b600560003373ffffffffffffffffffffffffffffffffffffffff1673ffffffffffffffffffffffffffffffffffffffff16815260200190815260200160002060009054906101000a900460ff16806107d35750600660003373ffffffffffffffffffffffffffffffffffffffff1673ffffffffffffffffffffffffffffffffffffffff16815260200190815260200160002060009054906101000a900460ff165b610812576040517f08c379a000000000000000000000000000000000000000000000000000000000815260040161080990612bc5565b60405180910390fd5b80600280549050811061085a576040517f08c379a000000000000000000000000000000000000000000000000000000000815260040161085190612c57565b60405180910390fd5b816002818154811061086f5761086e612c77565b5b906000526020600020906008020160070160009054906101000a900460ff16156108ce576040517f08c379a00000000000000000000000000000000000000000000000000000000081526004016108c590612d18565b60405180910390fd5b6007600084815260200190815260200160002060003373ffffffffffffffffffffffffffffffffffffffff1673ffffffffffffffffffffffffffffffffffffffff16815260200190815260200160002060009054906101000a900460ff1661096b576040517f08c379a000000000000000000000000000000000000000000000000000000000815260040161096290612daa565b60405180910390fd5b60006007600085815260200190815260200160002060003373ffffffffffffffffffffffffffffffffffffffff1673ffffffffffffffffffffffffffffffffffffffff16815260200190815260200160002060006101000a81548160ff021916908315150217905550823373ffffffffffffffffffffffffffffffffffffffff167ff0dca620e2e81f7841d07bcc105e1704fb01475b278a9d4c236e1c62945edd5560405160405180910390a3505050565b600860003373ffffffffffffffffffffffffffffffffffffffff1673ffffffffffffffffffffffffffffffffffffffff16815260200190815260200160002060009054906101000a900460ff16610aa9576040517f08c379a0000000000000000000000000000000000000000000000000000000008152600401610aa090612e3c565b60405180910390fd5b6000600280549050905060026040518061010001604052808873ffffffffffffffffffffffffffffffffffffffff1681526020013373ffffffffffffffffffffffffffffffffffffffff168152602001600460009054906101000a900473ffffffffffffffffffffffffffffffffffffffff1673ffffffffffffffffffffffffffffffffffffffff16815260200187815260200186815260200185815260200184815260200160001515815250908060018154018082558091505060019003906000526020600020906008020160009091909190915060008201518160000160006101000a81548173ffffffffffffffffffffffffffffffffffffffff021916908373ffffffffffffffffffffffffffffffffffffffff16021790555060208201518160010160006101000a81548173ffffffffffffffffffffffffffffffffffffffff021916908373ffffffffffffffffffffffffffffffffffffffff16021790555060408201518160020160006101000a81548173ffffffffffffffffffffffffffffffffffffffff021916908373ffffffffffffffffffffffffffffffffffffffff1602179055506060820151816003019080519060200190610c709291906120ab565b506080820151816004015560a0820151816005015560c0820151816006019080519060200190610ca1929190612131565b5060e08201518160070160006101000a81548160ff021916908315150217905550505060036040518060800160405280600460009054906101000a900473ffffffffffffffffffffffffffffffffffffffff1673ffffffffffffffffffffffffffffffffffffffff16815260200187815260200185815260200160001515815250908060018154018082558091505060019003906000526020600020906004020160009091909190915060008201518160000160006101000a81548173ffffffffffffffffffffffffffffffffffffffff021916908373ffffffffffffffffffffffffffffffffffffffff1602179055506020820151816001019080519060200190610dae9291906120ab565b506040820151816002015560608201518160030160006101000a81548160ff0219169083151502179055505050808673ffffffffffffffffffffffffffffffffffffffff163373ffffffffffffffffffffffffffffffffffffffff167fdcc6305eaacaadd8a2dcfcf795285b8b0ffeb8dbaa79f370b3805ff6d7d167018686604051610e3b929190612e5c565b60405180910390a4505050505050565b600560003373ffffffffffffffffffffffffffffffffffffffff1673ffffffffffffffffffffffffffffffffffffffff16815260200190815260200160002060009054906101000a900460ff1680610eec5750600660003373ffffffffffffffffffffffffffffffffffffffff1673ffffffffffffffffffffffffffffffffffffffff16815260200190815260200160002060009054906101000a900460ff165b610f2b576040517f08c379a0000000000000000000000000000000000000000000000000000000008152600401610f2290612bc5565b60405180910390fd5b600460149054906101000a900460ff1615610f7b576040517f08c379a0000000000000000000000000000000000000000000000000000000008152600401610f7290612efe565b60405180910390fd5b33600460006101000a81548173ffffffffffffffffffffffffffffffffffffffff021916908373ffffffffffffffffffffffffffffffffffffffff1602179055506001600460146101000a81548160ff021916908315150217905550565b6060600180548060200260200160405190810160405280929190818152602001828054801561105d57602002820191906000526020600020905b8160009054906101000a900473ffffffffffffffffffffffffffffffffffffffff1673ffffffffffffffffffffffffffffffffffffffff1681526020019060010190808311611013575b5050505050905090565b60056020528060005260406000206000915054906101000a900460ff1681565b60076020528160005260406000206020528060005260406000206000915091509054906101000a900460ff1681565b600281815481106110c657600080fd5b90600052602060002090600802016000915090508060000160009054906101000a900473ffffffffffffffffffffffffffffffffffffffff16908060010160009054906101000a900473ffffffffffffffffffffffffffffffffffffffff16908060020160009054906101000a900473ffffffffffffffffffffffffffffffffffffffff169080600301805461115b90612b47565b80601f016020809104026020016040519081016040528092919081815260200182805461118790612b47565b80156111d45780601f106111a9576101008083540402835291602001916111d4565b820191906000526020600020905b8154815290600101906020018083116111b757829003601f168201915b5050505050908060040154908060050154908060060180546111f590612b47565b80601f016020809104026020016040519081016040528092919081815260200182805461122190612b47565b801561126e5780601f106112435761010080835404028352916020019161126e565b820191906000526020600020905b81548152906001019060200180831161125157829003601f168201915b5050505050908060070160009054906101000a900460ff16905088565b600560003373ffffffffffffffffffffffffffffffffffffffff1673ffffffffffffffffffffffffffffffffffffffff16815260200190815260200160002060009054906101000a900460ff16611317576040517f08c379a000000000000000000000000000000000000000000000000000000000815260040161130e90612f90565b60405180910390fd5b60008160405160240161132a91906125e8565b6040516020818303038152906040527f0f574ba7000000000000000000000000000000000000000000000000000000007bffffffffffffffffffffffffffffffffffffffffffffffffffffffff19166020820180517bffffffffffffffffffffffffffffffffffffffffffffffffffffffff8381831617835250505050905060008373ffffffffffffffffffffffffffffffffffffffff166000836040516113d29190612fec565b60006040518083038185875af1925050503d806000811461140f576040519150601f19603f3d011682016040523d82523d6000602084013e611414565b606091505b5050905080611458576040517f08c379a000000000000000000000000000000000000000000000000000000000815260040161144f90613075565b60405180910390fd5b6001600860008673ffffffffffffffffffffffffffffffffffffffff1673ffffffffffffffffffffffffffffffffffffffff16815260200190815260200160002060006101000a81548160ff02191690831515021790555050505050565b60008060606000806000600287815481106114d4576114d3612c77565b5b906000526020600020906008020190508060000160009054906101000a900473ffffffffffffffffffffffffffffffffffffffff168160020160009054906101000a900473ffffffffffffffffffffffffffffffffffffffff168260030183600501548460070160009054906101000a900460ff1682805461155590612b47565b80601f016020809104026020016040519081016040528092919081815260200182805461158190612b47565b80156115ce5780601f106115a3576101008083540402835291602001916115ce565b820191906000526020600020905b8154815290600101906020018083116115b157829003601f168201915b50505050509250955095509550955095505091939590929450565b600560003373ffffffffffffffffffffffffffffffffffffffff1673ffffffffffffffffffffffffffffffffffffffff16815260200190815260200160002060009054906101000a900460ff168061168a5750600660003373ffffffffffffffffffffffffffffffffffffffff1673ffffffffffffffffffffffffffffffffffffffff16815260200190815260200160002060009054906101000a900460ff165b6116c9576040517f08c379a00000000000000000000000000000000000000000000000000000000081526004016116c090612bc5565b60405180910390fd5b600460149054906101000a900460ff16611718576040517f08c379a000000000000000000000000000000000000000000000000000000000815260040161170f90613107565b60405180910390fd5b600460009054906101000a900473ffffffffffffffffffffffffffffffffffffffff1673ffffffffffffffffffffffffffffffffffffffff163373ffffffffffffffffffffffffffffffffffffffff16146117a8576040517f08c379a000000000000000000000000000000000000000000000000000000000815260040161179f90613199565b60405180910390fd5b6000600460006101000a81548173ffffffffffffffffffffffffffffffffffffffff021916908373ffffffffffffffffffffffffffffffffffffffff1602179055506000600460146101000a81548160ff021916908315150217905550565b600560003373ffffffffffffffffffffffffffffffffffffffff1673ffffffffffffffffffffffffffffffffffffffff16815260200190815260200160002060009054906101000a900460ff16806118a85750600660003373ffffffffffffffffffffffffffffffffffffffff1673ffffffffffffffffffffffffffffffffffffffff16815260200190815260200160002060009054906101000a900460ff165b6118e7576040517f08c379a00000000000000000000000000000000000000000000000000000000081526004016118de90612bc5565b60405180910390fd5b80600280549050811061192f576040517f08c379a000000000000000000000000000000000000000000000000000000000815260040161192690612c57565b60405180910390fd5b816002818154811061194457611943612c77565b5b906000526020600020906008020160070160009054906101000a900460ff16156119a3576040517f08c379a000000000000000000000000000000000000000000000000000000000815260040161199a90612d18565b60405180910390fd5b826007600082815260200190815260200160002060003373ffffffffffffffffffffffffffffffffffffffff1673ffffffffffffffffffffffffffffffffffffffff16815260200190815260200160002060009054906101000a900460ff1615611a42576040517f08c379a0000000000000000000000000000000000000000000000000000000008152600401611a399061322b565b60405180910390fd5b60016007600086815260200190815260200160002060003373ffffffffffffffffffffffffffffffffffffffff1673ffffffffffffffffffffffffffffffffffffffff16815260200190815260200160002060006101000a81548160ff021916908315150217905550833373ffffffffffffffffffffffffffffffffffffffff167f6fd536f92795143f9e2bbccd75c8d45d32c07215f6b5dbbe85bf1bc435fb337c60405160405180910390a3611af884611be1565b15611b0757611b0684611e47565b5b50505050565b600460009054906101000a900473ffffffffffffffffffffffffffffffffffffffff1681565b60606000805480602002602001604051908101604052809291908181526020018280548015611bb757602002820191906000526020600020905b8160009054906101000a900473ffffffffffffffffffffffffffffffffffffffff1673ffffffffffffffffffffffffffffffffffffffff1681526020019060010190808311611b6d575b5050505050905090565b60086020528060005260406000206000915054906101000a900460ff1681565b6000600460009054906101000a900473ffffffffffffffffffffffffffffffffffffffff1673ffffffffffffffffffffffffffffffffffffffff1660008081548110611c3057611c2f612c77565b5b9060005260206000200160009054906101000a900473ffffffffffffffffffffffffffffffffffffffff1673ffffffffffffffffffffffffffffffffffffffff161415611d0a57600760008381526020019081526020016000206000600460009054906101000a900473ffffffffffffffffffffffffffffffffffffffff1673ffffffffffffffffffffffffffffffffffffffff1673ffffffffffffffffffffffffffffffffffffffff16815260200190815260200160002060009054906101000a900460ff1615611d055760019050611e42565b611e3d565b600760008381526020019081526020016000206000600460009054906101000a900473ffffffffffffffffffffffffffffffffffffffff1673ffffffffffffffffffffffffffffffffffffffff1673ffffffffffffffffffffffffffffffffffffffff16815260200190815260200160002060009054906101000a900460ff168015611e2e575060076000838152602001908152602001600020600080600081548110611dba57611db9612c77565b5b9060005260206000200160009054906101000a900473ffffffffffffffffffffffffffffffffffffffff1673ffffffffffffffffffffffffffffffffffffffff1673ffffffffffffffffffffffffffffffffffffffff16815260200190815260200160002060009054906101000a900460ff165b15611e3c5760019050611e42565b5b600090505b919050565b806002805490508110611e8f576040517f08c379a0000000000000000000000000000000000000000000000000000000008152600401611e8690612c57565b60405180910390fd5b8160028181548110611ea457611ea3612c77565b5b906000526020600020906008020160070160009054906101000a900460ff1615611f03576040517f08c379a0000000000000000000000000000000000000000000000000000000008152600401611efa90612d18565b60405180910390fd5b600060028481548110611f1957611f18612c77565b5b90600052602060002090600802019050600060038581548110611f3f57611f3e612c77565b5b9060005260206000209060040201905060018260070160006101000a81548160ff02191690831515021790555060018160030160006101000a81548160ff02191690831515021790555060008260000160009054906101000a900473ffffffffffffffffffffffffffffffffffffffff1673ffffffffffffffffffffffffffffffffffffffff16600084600601604051611fd991906132df565b60006040518083038185875af1925050503d8060008114612016576040519150601f19603f3d011682016040523d82523d6000602084013e61201b565b606091505b505090508061205f576040517f08c379a000000000000000000000000000000000000000000000000000000000815260040161205690613368565b60405180910390fd5b853373ffffffffffffffffffffffffffffffffffffffff167f3f5f3bb48a3f4ed60220f67854ae962918d4063e9011f663e468911e0635ec4160405160405180910390a3505050505050565b8280546120b790612b47565b90600052602060002090601f0160209004810192826120d95760008555612120565b82601f106120f257805160ff1916838001178555612120565b82800160010185558215612120579182015b8281111561211f578251825591602001919060010190612104565b5b50905061212d91906121b7565b5090565b82805461213d90612b47565b90600052602060002090601f01602090048101928261215f57600085556121a6565b82601f1061217857805160ff19168380011785556121a6565b828001600101855582156121a6579182015b828111156121a557825182559160200191906001019061218a565b5b5090506121b391906121b7565b5090565b5b808211156121d05760008160009055506001016121b8565b5090565b6000604051905090565b600080fd5b600080fd5b600073ffffffffffffffffffffffffffffffffffffffff82169050919050565b6000612213826121e8565b9050919050565b61222381612208565b811461222e57600080fd5b50565b6000813590506122408161221a565b92915050565b60006020828403121561225c5761225b6121de565b5b600061226a84828501612231565b91505092915050565b60008115159050919050565b61228881612273565b82525050565b60006020820190506122a3600083018461227f565b92915050565b6000819050919050565b6122bc816122a9565b81146122c757600080fd5b50565b6000813590506122d9816122b3565b92915050565b6000602082840312156122f5576122f46121de565b5b6000612303848285016122ca565b91505092915050565b61231581612208565b82525050565b600081519050919050565b600082825260208201905092915050565b60005b8381101561235557808201518184015260208101905061233a565b83811115612364576000848401525b50505050565b6000601f19601f8301169050919050565b60006123868261231b565b6123908185612326565b93506123a0818560208601612337565b6123a98161236a565b840191505092915050565b6123bd816122a9565b82525050565b60006080820190506123d8600083018761230c565b81810360208301526123ea818661237b565b90506123f960408301856123b4565b612406606083018461227f565b95945050505050565b600081519050919050565b600082825260208201905092915050565b6000819050602082019050919050565b61244481612208565b82525050565b600082825260208201905092915050565b60006124668261231b565b612470818561244a565b9350612480818560208601612337565b6124898161236a565b840191505092915050565b61249d816122a9565b82525050565b6124ac81612273565b82525050565b60006080830160008301516124ca600086018261243b565b50602083015184820360208601526124e2828261245b565b91505060408301516124f76040860182612494565b50606083015161250a60608601826124a3565b508091505092915050565b600061252183836124b2565b905092915050565b6000602082019050919050565b60006125418261240f565b61254b818561241a565b93508360208202850161255d8561242b565b8060005b85811015612599578484038952815161257a8582612515565b945061258583612529565b925060208a01995050600181019050612561565b50829750879550505050505092915050565b600060208201905081810360008301526125c58184612536565b905092915050565b60006020820190506125e2600083018461230c565b92915050565b60006020820190506125fd60008301846123b4565b92915050565b600080fd5b600080fd5b7f4e487b7100000000000000000000000000000000000000000000000000000000600052604160045260246000fd5b6126458261236a565b810181811067ffffffffffffffff821117156126645761266361260d565b5b80604052505050565b60006126776121d4565b9050612683828261263c565b919050565b600067ffffffffffffffff8211156126a3576126a261260d565b5b6126ac8261236a565b9050602081019050919050565b82818337600083830152505050565b60006126db6126d684612688565b61266d565b9050828152602081018484840111156126f7576126f6612608565b5b6127028482856126b9565b509392505050565b600082601f83011261271f5761271e612603565b5b813561272f8482602086016126c8565b91505092915050565b600067ffffffffffffffff8211156127535761275261260d565b5b61275c8261236a565b9050602081019050919050565b600061277c61277784612738565b61266d565b90508281526020810184848401111561279857612797612608565b5b6127a38482856126b9565b509392505050565b600082601f8301126127c0576127bf612603565b5b81356127d0848260208601612769565b91505092915050565b600080600080600060a086880312156127f5576127f46121de565b5b600061280388828901612231565b955050602086013567ffffffffffffffff811115612824576128236121e3565b5b6128308882890161270a565b9450506040612841888289016122ca565b9350506060612852888289016122ca565b925050608086013567ffffffffffffffff811115612873576128726121e3565b5b61287f888289016127ab565b9150509295509295909350565b600081519050919050565b600082825260208201905092915050565b6000819050602082019050919050565b60006128c4838361243b565b60208301905092915050565b6000602082019050919050565b60006128e88261288c565b6128f28185612897565b93506128fd836128a8565b8060005b8381101561292e57815161291588826128b8565b9750612920836128d0565b925050600181019050612901565b5085935050505092915050565b6000602082019050818103600083015261295581846128dd565b905092915050565b60008060408385031215612974576129736121de565b5b6000612982858286016122ca565b925050602061299385828601612231565b9150509250929050565b600081519050919050565b600082825260208201905092915050565b60006129c48261299d565b6129ce81856129a8565b93506129de818560208601612337565b6129e78161236a565b840191505092915050565b600061010082019050612a08600083018b61230c565b612a15602083018a61230c565b612a22604083018961230c565b8181036060830152612a34818861237b565b9050612a4360808301876123b4565b612a5060a08301866123b4565b81810360c0830152612a6281856129b9565b9050612a7160e083018461227f565b9998505050505050505050565b60008060408385031215612a9557612a946121de565b5b6000612aa385828601612231565b9250506020612ab4858286016122ca565b9150509250929050565b600060a082019050612ad3600083018861230c565b612ae0602083018761230c565b8181036040830152612af2818661237b565b9050612b0160608301856123b4565b612b0e608083018461227f565b9695505050505050565b7f4e487b7100000000000000000000000000000000000000000000000000000000600052602260045260246000fd5b60006002820490506001821680612b5f57607f821691505b60208210811415612b7357612b72612b18565b5b50919050565b7f4361724d756c746953696757616c6c65743a204e6f7420616e206f776e65722e600082015250565b6000612baf602083612326565b9150612bba82612b79565b602082019050919050565b60006020820190508181036000830152612bde81612ba2565b9050919050565b7f4361724d756c746953696757616c6c65743a2054786e20646f6573206e6f742060008201527f65786973742e0000000000000000000000000000000000000000000000000000602082015250565b6000612c41602683612326565b9150612c4c82612be5565b604082019050919050565b60006020820190508181036000830152612c7081612c34565b9050919050565b7f4e487b7100000000000000000000000000000000000000000000000000000000600052603260045260246000fd5b7f4361724d756c746953696757616c6c65743a2054786e20616c7265616479206560008201527f786563757465642e000000000000000000000000000000000000000000000000602082015250565b6000612d02602883612326565b9150612d0d82612ca6565b604082019050919050565b60006020820190508181036000830152612d3181612cf5565b9050919050565b7f4361724d756c746953696757616c6c65743a2052657175657374206e6f74206360008201527f6f6e6669726d65642e0000000000000000000000000000000000000000000000602082015250565b6000612d94602983612326565b9150612d9f82612d38565b604082019050919050565b60006020820190508181036000830152612dc381612d87565b9050919050565b7f4361724d756c746953696757616c6c65743a2053656e6465722773207365727660008201527f696365206973206e6f7420737562736372696265642e00000000000000000000602082015250565b6000612e26603683612326565b9150612e3182612dca565b604082019050919050565b60006020820190508181036000830152612e5581612e19565b9050919050565b6000604082019050612e7160008301856123b4565b8181036020830152612e8381846129b9565b90509392505050565b7f4361724d756c746953696757616c6c65743a2043617220616c7265616479206960008201527f6e207573652e0000000000000000000000000000000000000000000000000000602082015250565b6000612ee8602683612326565b9150612ef382612e8c565b604082019050919050565b60006020820190508181036000830152612f1781612edb565b9050919050565b7f4361724d756c746953696757616c6c65743a204e6f742061207072696d61727960008201527f206f776e65722e00000000000000000000000000000000000000000000000000602082015250565b6000612f7a602783612326565b9150612f8582612f1e565b604082019050919050565b60006020820190508181036000830152612fa981612f6d565b9050919050565b600081905092915050565b6000612fc68261299d565b612fd08185612fb0565b9350612fe0818560208601612337565b80840191505092915050565b6000612ff88284612fbb565b915081905092915050565b7f4361724d756c746953696757616c6c65743a20537562736372697074696f6e2060008201527f6661696c65642e00000000000000000000000000000000000000000000000000602082015250565b600061305f602783612326565b915061306a82613003565b604082019050919050565b6000602082019050818103600083015261308e81613052565b9050919050565b7f54686520636172206973206e6f7420696e207573652061742070726573656e7460008201527f2e00000000000000000000000000000000000000000000000000000000000000602082015250565b60006130f1602183612326565b91506130fc82613095565b604082019050919050565b60006020820190508181036000830152613120816130e4565b9050919050565b7f596f7520617265206e6f74207573696e6720746865206361722061742070726560008201527f73656e742e000000000000000000000000000000000000000000000000000000602082015250565b6000613183602583612326565b915061318e82613127565b604082019050919050565b600060208201905081810360008301526131b281613176565b9050919050565b7f4361724d756c746953696757616c6c65743a2054786e20616c7265616479206360008201527f6f6e6669726d65642e0000000000000000000000000000000000000000000000602082015250565b6000613215602983612326565b9150613220826131b9565b604082019050919050565b6000602082019050818103600083015261324481613208565b9050919050565b60008190508160005260206000209050919050565b6000815461326d81612b47565b6132778186612fb0565b9450600182166000811461329257600181146132a3576132d6565b60ff198316865281860193506132d6565b6132ac8561324b565b60005b838110156132ce578154818901526001820191506020810190506132af565b838801955050505b50505092915050565b60006132eb8284613260565b915081905092915050565b7f4361724d756c746953696757616c6c65743a205061796d656e7420726571756560008201527f7374206661696c65642e00000000000000000000000000000000000000000000602082015250565b6000613352602a83612326565b915061335d826132f6565b604082019050919050565b6000602082019050818103600083015261338181613345565b905091905056fea264697066735822122098a3cb5f8e180d052ac24146638232a2bdc178bbe7bcfbc89b6036746dd540a664736f6c634300080a0033",
  "immutableReferences": {},
  "source": "// SPDX-License-Identifier: MIT\r\npragma solidity ^0.8.10;\r\n\r\ncontract CarWallet {\r\n\r\n    event SubmitPaymentRequest(\r\n        address indexed from,\r\n        address indexed to,\r\n        uint indexed txIndex,\r\n        uint amount,\r\n        bytes data\r\n    );\r\n    event ConfirmPaymentRequest(address indexed owner, uint indexed txIndex);\r\n    event RevokeConfirmation(address indexed owner, uint indexed txIndex);\r\n    event ExecutePaymentRequest(address indexed owner, uint indexed txIndex);\r\n\r\n    address[] public primaryOwners;\r\n    address[] public secondaryOwners;\r\n    PaymentRequest[] public requests;\r\n    SimplifiedRequest[] public simpleRequests;\r\n    address public currentCarUser;\r\n    bool carInUse;\r\n\r\n    mapping(address => bool) public isPrimaryOwner;\r\n    mapping(address => bool) public isSecondaryOwner;\r\n    mapping(uint => mapping(address => bool)) public isConfirmed;\r\n    mapping(address => bool) public subscriptions;\r\n\r\n    struct PaymentRequest {\r\n        address to;\r\n        address fromAddress;\r\n        address carUser;\r\n        string fromName;\r\n        uint reqId;\r\n        uint amount;\r\n        bytes data;\r\n        bool executed;\r\n    }\r\n\r\n    struct SimplifiedRequest {\r\n        address carUser;\r\n        string fromName;\r\n        uint amount;\r\n        bool executed;\r\n    }\r\n\r\n    modifier onlyOwner() {\r\n        require(isPrimaryOwner[msg.sender] || isSecondaryOwner[msg.sender], \"CarMultiSigWallet: Not an owner.\");\r\n        _;\r\n    }\r\n\r\n    modifier onlyPrimaryOwner() {\r\n        require(isPrimaryOwner[msg.sender], \"CarMultiSigWallet: Not a primary owner.\");\r\n        _;\r\n    }\r\n\r\n    modifier txExists(uint _txIndex) {\r\n        require(_txIndex < requests.length, \"CarMultiSigWallet: Txn does not exist.\");\r\n        _;\r\n    }\r\n\r\n    modifier notExecuted(uint _txIndex) {\r\n        require(!requests[_txIndex].executed, \"CarMultiSigWallet: Txn already executed.\");\r\n        _;\r\n    }\r\n\r\n    modifier notConfirmed(uint _txIndex) {\r\n        require(!isConfirmed[_txIndex][msg.sender], \"CarMultiSigWallet: Txn already confirmed.\");\r\n        _;\r\n    }\r\n\r\n    modifier isSubscription() {\r\n        require(subscriptions[msg.sender], \"CarMultiSigWallet: Sender's service is not subscribed.\");\r\n        _;\r\n    }\r\n\r\n    constructor(address[] memory _primaryOwners, address[] memory _secondaryOwners) {\r\n        require(_primaryOwners.length > 0, \"CarMultiSigWallet: Primary owners required\");\r\n        require(_secondaryOwners.length > 0, \"CarMultiSigWallet: Secondary owners required\");\r\n\r\n        for (uint i = 0; i < _primaryOwners.length; i++) {\r\n            address owner = _primaryOwners[i];\r\n\r\n            require(owner != address(0), \"CarMultiSigWallet: Invalid owner.\");\r\n            require(!isPrimaryOwner[owner], \"CarMultiSigWallet: Owner not unique.\");\r\n\r\n            isPrimaryOwner[owner] = true;\r\n            primaryOwners.push(owner);\r\n        }\r\n\r\n        for (uint i = 0; i < _secondaryOwners.length; i++) {\r\n            address owner = _secondaryOwners[i];\r\n\r\n            require(owner != address(0), \"CarMultiSigWallet: Invalid owner.\");\r\n            require(!isSecondaryOwner[owner], \"CarMultiSigWallet: Owner not unique.\");\r\n\r\n            isSecondaryOwner[owner] = true;\r\n            secondaryOwners.push(owner);\r\n        }\r\n    }\r\n\r\n    function subscribe(address _serviceAddress, uint _maxAmount) public onlyPrimaryOwner {\r\n        bytes memory subscribeTxn = abi.encodeWithSignature(\"subscribe(uint256)\", _maxAmount);\r\n        (bool success, ) = _serviceAddress.call{value: 0}(\r\n            subscribeTxn\r\n        );\r\n        require(success, \"CarMultiSigWallet: Subscription failed.\");\r\n        subscriptions[_serviceAddress] = true;\r\n    }\r\n\r\n    function setCurrentCarUser() public onlyOwner {\r\n        require(!carInUse , \"CarMultiSigWallet: Car already in use.\");\r\n        currentCarUser = msg.sender;\r\n        carInUse = true;\r\n    }\r\n\r\n    function resetCurrentCarUser() public onlyOwner {\r\n        require(carInUse , \"The car is not in use at present.\");\r\n        require(msg.sender == currentCarUser , \"You are not using the car at present.\");\r\n\r\n        currentCarUser = address(0);\r\n        carInUse = false;\r\n    }\r\n\r\n    function submitPaymentRequest(\r\n        address _to,\r\n        string memory _from,\r\n        uint _reqId,\r\n        uint _amount,\r\n        bytes memory _data\r\n    ) public isSubscription {\r\n        uint txIndex = requests.length;\r\n        requests.push(\r\n            PaymentRequest({\r\n                to: _to,\r\n                fromName: _from,\r\n                carUser: currentCarUser,\r\n                fromAddress: msg.sender,\r\n                reqId: _reqId,\r\n                amount: _amount,\r\n                data: _data,\r\n                executed: false\r\n            })\r\n        );\r\n\r\n        simpleRequests.push(\r\n            SimplifiedRequest({\r\n                fromName: _from,\r\n                carUser: currentCarUser,\r\n                amount: _amount,\r\n                executed: false\r\n            })\r\n        );\r\n\r\n        emit SubmitPaymentRequest(msg.sender, _to, txIndex, _amount, _data);\r\n    }\r\n\r\n    function confirmPaymentRequest(uint _txIndex)\r\n        public\r\n        onlyOwner\r\n        txExists(_txIndex)\r\n        notExecuted(_txIndex)\r\n        notConfirmed(_txIndex)\r\n    {\r\n        isConfirmed[_txIndex][msg.sender] = true;\r\n\r\n        emit ConfirmPaymentRequest(msg.sender, _txIndex);\r\n\r\n        if(isRequestConfirmed(_txIndex)){\r\n            executePaymentRequest(_txIndex);\r\n        }\r\n    }\r\n\r\n    function executePaymentRequest(uint _txIndex)\r\n        internal\r\n        txExists(_txIndex)\r\n        notExecuted(_txIndex)\r\n    {\r\n        PaymentRequest storage request = requests[_txIndex];\r\n        SimplifiedRequest storage simpleRequest = simpleRequests[_txIndex];\r\n\r\n        request.executed = true;\r\n        simpleRequest.executed = true;\r\n\r\n        (bool paymentSuccess, ) = request.to.call{value: 0}(\r\n            request.data\r\n        );\r\n        require(paymentSuccess, \"CarMultiSigWallet: Payment request failed.\");\r\n\r\n        emit ExecutePaymentRequest(msg.sender, _txIndex);\r\n    }\r\n\r\n    function revokePaymentConfirmation(uint _txIndex)\r\n        public\r\n        onlyOwner\r\n        txExists(_txIndex)\r\n        notExecuted(_txIndex)\r\n    {\r\n        require(isConfirmed[_txIndex][msg.sender], \"CarMultiSigWallet: Request not confirmed.\");\r\n\r\n        isConfirmed[_txIndex][msg.sender] = false;\r\n\r\n        emit RevokeConfirmation(msg.sender, _txIndex);\r\n    }\r\n\r\n    function getPrimaryOwners() public view returns (address[] memory) {\r\n        return primaryOwners;\r\n    }\r\n\r\n    function getSecondaryOwners() public view returns (address[] memory) {\r\n        return secondaryOwners;\r\n    }\r\n\r\n    function getTransactionCount() public view returns (uint) {\r\n        return requests.length;\r\n    }\r\n\r\n    function getPaymentRequest(uint _txIndex)\r\n        public\r\n        view\r\n        returns (\r\n            address to,\r\n            address carUser,\r\n            string memory fromName,\r\n            uint value,\r\n            bool executed\r\n        )\r\n    {\r\n        PaymentRequest storage request = requests[_txIndex];\r\n\r\n        return (\r\n            request.to,\r\n            request.carUser,\r\n            request.fromName,\r\n            request.amount,\r\n            request.executed\r\n        );\r\n    }\r\n\r\n    function getPaymentRequests() public view returns (SimplifiedRequest[] memory) {\r\n        return simpleRequests;\r\n    }\r\n\r\n    function isRequestConfirmed(uint _txIndex) internal view returns (bool) {\r\n        if(primaryOwners[0] == currentCarUser) {\r\n            if(isConfirmed[_txIndex][currentCarUser]){\r\n                return true;\r\n            }\r\n        } else {\r\n            if(isConfirmed[_txIndex][currentCarUser] && isConfirmed[_txIndex][primaryOwners[0]]){\r\n                return true;\r\n            }\r\n        }\r\n        return false;\r\n    }\r\n}",
  "sourcePath": "C:/Users/91797/Desktop/musical-happiness/contracts/CarWallet.sol",
  "compiler": {
    "name": "solc",
    "version": "0.8.10+commit.fc410830.Emscripten.clang"
  },
  "schemaVersion": "3.3.4",
  "updatedAt": "2022-01-07T02:55:00.864Z",
  "networkType": "ethereum",
  "devdoc": {
    "kind": "dev",
    "methods": {},
    "version": 1
  },
  "userdoc": {
    "kind": "user",
    "methods": {},
    "version": 1
  }
}