{
  "contractName": "Subscription",
  "abi": [
    {
      "inputs": [
        {
          "internalType": "string",
          "name": "_serviceName",
          "type": "string"
        }
      ],
      "stateMutability": "nonpayable",
      "type": "constructor"
    },
    {
      "inputs": [
        {
          "internalType": "address",
          "name": "",
          "type": "address"
        },
        {
          "internalType": "uint256",
          "name": "",
          "type": "uint256"
        }
      ],
      "name": "requestStatus",
      "outputs": [
        {
          "internalType": "address",
          "name": "to",
          "type": "address"
        },
        {
          "internalType": "uint256",
          "name": "amount",
          "type": "uint256"
        },
        {
          "internalType": "bool",
          "name": "complete",
          "type": "bool"
        }
      ],
      "stateMutability": "view",
      "type": "function"
    },
    {
      "inputs": [
        {
          "internalType": "uint256",
          "name": "_maxAmount",
          "type": "uint256"
        }
      ],
      "name": "subscribe",
      "outputs": [],
      "stateMutability": "nonpayable",
      "type": "function"
    },
    {
      "inputs": [
        {
          "internalType": "uint256",
          "name": "_numTokens",
          "type": "uint256"
        },
        {
          "internalType": "address",
          "name": "_multiSigAddress",
          "type": "address"
        },
        {
          "internalType": "address",
          "name": "_erc20Address",
          "type": "address"
        }
      ],
      "name": "chargeAmount",
      "outputs": [],
      "stateMutability": "nonpayable",
      "type": "function"
    },
    {
      "inputs": [
        {
          "internalType": "address",
          "name": "_subscriberAddress",
          "type": "address"
        },
        {
          "internalType": "uint256",
          "name": "_reqId",
          "type": "uint256"
        }
      ],
      "name": "markRequestComplete",
      "outputs": [],
      "stateMutability": "nonpayable",
      "type": "function"
    },
    {
      "inputs": [
        {
          "internalType": "address",
          "name": "_subscriberAddress",
          "type": "address"
        },
        {
          "internalType": "uint256",
          "name": "_reqId",
          "type": "uint256"
        }
      ],
      "name": "getRequestStatus",
      "outputs": [
        {
          "internalType": "bool",
          "name": "",
          "type": "bool"
        }
      ],
      "stateMutability": "view",
      "type": "function"
    }
  ],
  "bytecode": "0x60806040523480156200001157600080fd5b50604051620015a4380380620015a48339818101604052810190620000379190620002e5565b80600090805190602001906200004f92919062000098565b5033600160006101000a81548173ffffffffffffffffffffffffffffffffffffffff021916908373ffffffffffffffffffffffffffffffffffffffff160217905550506200039b565b828054620000a69062000365565b90600052602060002090601f016020900481019282620000ca576000855562000116565b82601f10620000e557805160ff191683800117855562000116565b8280016001018555821562000116579182015b8281111562000115578251825591602001919060010190620000f8565b5b50905062000125919062000129565b5090565b5b80821115620001445760008160009055506001016200012a565b5090565b6000604051905090565b600080fd5b600080fd5b600080fd5b600080fd5b6000601f19601f8301169050919050565b7f4e487b7100000000000000000000000000000000000000000000000000000000600052604160045260246000fd5b620001b18262000166565b810181811067ffffffffffffffff82111715620001d357620001d262000177565b5b80604052505050565b6000620001e862000148565b9050620001f68282620001a6565b919050565b600067ffffffffffffffff82111562000219576200021862000177565b5b620002248262000166565b9050602081019050919050565b60005b838110156200025157808201518184015260208101905062000234565b8381111562000261576000848401525b50505050565b60006200027e6200027884620001fb565b620001dc565b9050828152602081018484840111156200029d576200029c62000161565b5b620002aa84828562000231565b509392505050565b600082601f830112620002ca57620002c96200015c565b5b8151620002dc84826020860162000267565b91505092915050565b600060208284031215620002fe57620002fd62000152565b5b600082015167ffffffffffffffff8111156200031f576200031e62000157565b5b6200032d84828501620002b2565b91505092915050565b7f4e487b7100000000000000000000000000000000000000000000000000000000600052602260045260246000fd5b600060028204905060018216806200037e57607f821691505b6020821081141562000395576200039462000336565b5b50919050565b6111f980620003ab6000396000f3fe608060405234801561001057600080fd5b5060043610610074576000357c0100000000000000000000000000000000000000000000000000000000900480630f574ba71461007957806339fc0cc91461009557806398e4136b146100b1578063a7edcdf1146100e3578063d15f00ca146100ff575b600080fd5b610093600480360381019061008e91906109f8565b61012f565b005b6100af60048036038101906100aa9190610a83565b610237565b005b6100cb60048036038101906100c69190610a83565b6103c6565b6040516100da93929190610afc565b60405180910390f35b6100fd60048036038101906100f89190610b33565b61042a565b005b61011960048036038101906101149190610a83565b610952565b6040516101269190610b86565b60405180910390f35b60405180608001604052806001151581526020013373ffffffffffffffffffffffffffffffffffffffff168152602001621275004261016e9190610bd0565b815260200182815250600360003373ffffffffffffffffffffffffffffffffffffffff1673ffffffffffffffffffffffffffffffffffffffff16815260200190815260200160002060008201518160000160006101000a81548160ff02191690831515021790555060208201518160000160016101000a81548173ffffffffffffffffffffffffffffffffffffffff021916908373ffffffffffffffffffffffffffffffffffffffff160217905550604082015181600101556060820151816002015590505050565b600160009054906101000a900473ffffffffffffffffffffffffffffffffffffffff1673ffffffffffffffffffffffffffffffffffffffff163373ffffffffffffffffffffffffffffffffffffffff16146102c7576040517f08c379a00000000000000000000000000000000000000000000000000000000081526004016102be90610c83565b60405180910390fd5b600360008373ffffffffffffffffffffffffffffffffffffffff1673ffffffffffffffffffffffffffffffffffffffff16815260200190815260200160002060000160009054906101000a900460ff16610356576040517f08c379a000000000000000000000000000000000000000000000000000000000815260040161034d90610d15565b60405180910390fd5b6001600460008473ffffffffffffffffffffffffffffffffffffffff1673ffffffffffffffffffffffffffffffffffffffff168152602001908152602001600020600083815260200190815260200160002060020160006101000a81548160ff0219169083151502179055505050565b6004602052816000526040600020602052806000526040600020600091509150508060000160009054906101000a900473ffffffffffffffffffffffffffffffffffffffff16908060010154908060020160009054906101000a900460ff16905083565b600160009054906101000a900473ffffffffffffffffffffffffffffffffffffffff1673ffffffffffffffffffffffffffffffffffffffff163373ffffffffffffffffffffffffffffffffffffffff16146104ba576040517f08c379a00000000000000000000000000000000000000000000000000000000081526004016104b190610c83565b60405180910390fd5b600360008373ffffffffffffffffffffffffffffffffffffffff1673ffffffffffffffffffffffffffffffffffffffff16815260200190815260200160002060000160009054906101000a900460ff16610549576040517f08c379a000000000000000000000000000000000000000000000000000000000815260040161054090610da7565b60405180910390fd5b42600360008473ffffffffffffffffffffffffffffffffffffffff1673ffffffffffffffffffffffffffffffffffffffff16815260200190815260200160002060010154116105cd576040517f08c379a00000000000000000000000000000000000000000000000000000000081526004016105c490610e39565b60405180910390fd5b82600360008473ffffffffffffffffffffffffffffffffffffffff1673ffffffffffffffffffffffffffffffffffffffff168152602001908152602001600020600201541015610652576040517f08c379a000000000000000000000000000000000000000000000000000000000815260040161064990610ecb565b60405180910390fd5b6000600254905060405180606001604052808473ffffffffffffffffffffffffffffffffffffffff16815260200185815260200160001515815250600460008573ffffffffffffffffffffffffffffffffffffffff1673ffffffffffffffffffffffffffffffffffffffff168152602001908152602001600020600083815260200190815260200160002060008201518160000160006101000a81548173ffffffffffffffffffffffffffffffffffffffff021916908373ffffffffffffffffffffffffffffffffffffffff1602179055506020820151816001015560408201518160020160006101000a81548160ff02191690831515021790555090505060003085604051602401610766929190610eeb565b6040516020818303038152906040527fbec3fa17000000000000000000000000000000000000000000000000000000007bffffffffffffffffffffffffffffffffffffffffffffffffffffffff19166020820180517bffffffffffffffffffffffffffffffffffffffffffffffffffffffff8381831617835250505050905060008360008488856040516024016108019594939291906110a3565b6040516020818303038152906040527f3fa0485f000000000000000000000000000000000000000000000000000000007bffffffffffffffffffffffffffffffffffffffffffffffffffffffff19166020820180517bffffffffffffffffffffffffffffffffffffffffffffffffffffffff8381831617835250505050905060008573ffffffffffffffffffffffffffffffffffffffff166000836040516108a99190611140565b60006040518083038185875af1925050503d80600081146108e6576040519150601f19603f3d011682016040523d82523d6000602084013e6108eb565b606091505b505090508061092f576040517f08c379a0000000000000000000000000000000000000000000000000000000008152600401610926906111a3565b60405180910390fd5b6001600260008282546109429190610bd0565b9250508190555050505050505050565b6000600460008473ffffffffffffffffffffffffffffffffffffffff1673ffffffffffffffffffffffffffffffffffffffff168152602001908152602001600020600083815260200190815260200160002060020160009054906101000a900460ff16905092915050565b600080fd5b6000819050919050565b6109d5816109c2565b81146109e057600080fd5b50565b6000813590506109f2816109cc565b92915050565b600060208284031215610a0e57610a0d6109bd565b5b6000610a1c848285016109e3565b91505092915050565b600073ffffffffffffffffffffffffffffffffffffffff82169050919050565b6000610a5082610a25565b9050919050565b610a6081610a45565b8114610a6b57600080fd5b50565b600081359050610a7d81610a57565b92915050565b60008060408385031215610a9a57610a996109bd565b5b6000610aa885828601610a6e565b9250506020610ab9858286016109e3565b9150509250929050565b610acc81610a45565b82525050565b610adb816109c2565b82525050565b60008115159050919050565b610af681610ae1565b82525050565b6000606082019050610b116000830186610ac3565b610b1e6020830185610ad2565b610b2b6040830184610aed565b949350505050565b600080600060608486031215610b4c57610b4b6109bd565b5b6000610b5a868287016109e3565b9350506020610b6b86828701610a6e565b9250506040610b7c86828701610a6e565b9150509250925092565b6000602082019050610b9b6000830184610aed565b92915050565b7f4e487b7100000000000000000000000000000000000000000000000000000000600052601160045260246000fd5b6000610bdb826109c2565b9150610be6836109c2565b9250827fffffffffffffffffffffffffffffffffffffffffffffffffffffffffffffffff03821115610c1b57610c1a610ba1565b5b828201905092915050565b600082825260208201905092915050565b7f537562736372697074696f6e3a204e6f7420746865206f776e65722e00000000600082015250565b6000610c6d601c83610c26565b9150610c7882610c37565b602082019050919050565b60006020820190508181036000830152610c9c81610c60565b9050919050565b7f537562736372697074696f6e3a2053656e646572206e6f74206120737562736360008201527f72696265722e0000000000000000000000000000000000000000000000000000602082015250565b6000610cff602683610c26565b9150610d0a82610ca3565b604082019050919050565b60006020820190508181036000830152610d2e81610cf2565b9050919050565b7f537562736372697074696f6e3a20537562736372697074696f6e20646f65732060008201527f6e6f742065786973742e00000000000000000000000000000000000000000000602082015250565b6000610d91602a83610c26565b9150610d9c82610d35565b604082019050919050565b60006020820190508181036000830152610dc081610d84565b9050919050565b7f537562736372697074696f6e3a20537562736372697074696f6e20657870697260008201527f65642e0000000000000000000000000000000000000000000000000000000000602082015250565b6000610e23602383610c26565b9150610e2e82610dc7565b604082019050919050565b60006020820190508181036000830152610e5281610e16565b9050919050565b7f537562736372697074696f6e3a20416d6f756e74207468726573686f6c64206260008201527f726561636865642e000000000000000000000000000000000000000000000000602082015250565b6000610eb5602883610c26565b9150610ec082610e59565b604082019050919050565b60006020820190508181036000830152610ee481610ea8565b9050919050565b6000604082019050610f006000830185610ac3565b610f0d6020830184610ad2565b9392505050565b7f4e487b7100000000000000000000000000000000000000000000000000000000600052602260045260246000fd5b60006002820490506001821680610f5b57607f821691505b60208210811415610f6f57610f6e610f14565b5b50919050565b60008190508160005260206000209050919050565b60008154610f9781610f43565b610fa18186610c26565b94506001821660008114610fbc5760018114610fce57611001565b60ff1983168652602086019350611001565b610fd785610f75565b60005b83811015610ff957815481890152600182019150602081019050610fda565b808801955050505b50505092915050565b600081519050919050565b600082825260208201905092915050565b60005b83811015611044578082015181840152602081019050611029565b83811115611053576000848401525b50505050565b6000601f19601f8301169050919050565b60006110758261100a565b61107f8185611015565b935061108f818560208601611026565b61109881611059565b840191505092915050565b600060a0820190506110b86000830188610ac3565b81810360208301526110ca8187610f8a565b90506110d96040830186610ad2565b6110e66060830185610ad2565b81810360808301526110f8818461106a565b90509695505050505050565b600081905092915050565b600061111a8261100a565b6111248185611104565b9350611134818560208601611026565b80840191505092915050565b600061114c828461110f565b915081905092915050565b7f537562736372697074696f6e3a2054786e206661696c65642e00000000000000600082015250565b600061118d601983610c26565b915061119882611157565b602082019050919050565b600060208201905081810360008301526111bc81611180565b905091905056fea26469706673582212206d910676dc14987f3369e36965386d42a058bb91c948257bb4010fa94d29dedb64736f6c634300080a0033",
  "immutableReferences": {},
  "source": "// SPDX-License-Identifier: MIT\r\npragma solidity ^0.8.10;\r\n\r\ncontract Subscription {\r\n\r\n    string serviceName;\r\n    address owner;\r\n    uint numRequests;\r\n\r\n    mapping(address => Subscription) private subscribers;\r\n    mapping(address => mapping(uint256 => PaymentRequest)) public requestStatus;\r\n\r\n    struct Subscription {\r\n        bool exists;\r\n        address subscriber;\r\n        uint expires;\r\n        uint maxAmount; \r\n    }\r\n\r\n    struct PaymentRequest {\r\n        address to;\r\n        uint amount;\r\n        bool complete;\r\n    }\r\n\r\n    modifier onlyOwner() {\r\n        require(msg.sender == owner, \"Subscription: Not the owner.\");\r\n        _;\r\n    }\r\n\r\n    constructor(string memory _serviceName) {\r\n        serviceName = _serviceName;\r\n        owner = msg.sender;\r\n    }\r\n\r\n    function subscribe(uint _maxAmount) public {\r\n        subscribers[msg.sender] = Subscription({exists: true, subscriber: msg.sender, expires: block.timestamp + 2 weeks, maxAmount: _maxAmount});\r\n    }\r\n\r\n    function chargeAmount(uint _numTokens, address _multiSigAddress, address _erc20Address) public onlyOwner {\r\n        require(subscribers[_multiSigAddress].exists, \"Subscription: Subscription does not exist.\");\r\n        require(subscribers[_multiSigAddress].expires > block.timestamp, \"Subscription: Subscription expired.\");\r\n        require(subscribers[_multiSigAddress].maxAmount >= _numTokens, \"Subscription: Amount threshold breached.\");\r\n        uint reqId = numRequests;\r\n        requestStatus[_multiSigAddress][reqId] = PaymentRequest({to: _multiSigAddress, amount: _numTokens, complete: false});\r\n        bytes memory transferTxn = abi.encodeWithSignature(\"transferTokens(address,uint256)\", address(this), _numTokens);\r\n        bytes memory multiSigSubmitTxn = abi.encodeWithSignature(\"submitPaymentRequest(address,string,uint256,uint256,bytes)\", _erc20Address, serviceName, reqId, _numTokens, transferTxn);\r\n        (bool success, ) = _multiSigAddress.call{value: 0}(\r\n            multiSigSubmitTxn\r\n        );\r\n        require(success, \"Subscription: Txn failed.\");\r\n        numRequests += 1;\r\n    }\r\n\r\n    function markRequestComplete(address _subscriberAddress, uint256 _reqId) public onlyOwner {\r\n        require(subscribers[_subscriberAddress].exists, \"Subscription: Sender not a subscriber.\");\r\n        requestStatus[_subscriberAddress][_reqId].complete = true;\r\n    }\r\n\r\n    function getRequestStatus(address _subscriberAddress, uint256 _reqId) public view returns (bool) {\r\n        return requestStatus[_subscriberAddress][_reqId].complete;\r\n    }\r\n\r\n}",
  "sourcePath": "C:/Users/91797/Desktop/musical-happiness/contracts/Subscription.sol",
  "compiler": {
    "name": "solc",
    "version": "0.8.10+commit.fc410830.Emscripten.clang"
  },
  "schemaVersion": "3.3.4",
  "updatedAt": "2022-01-06T04:14:29.642Z",
  "devdoc": {
    "kind": "dev",
    "methods": {},
    "version": 1
  },
  "userdoc": {
    "kind": "user",
    "methods": {},
    "version": 1
  }
}